{
  "contractName": "MyNews",
  "abi": [
    {
      "constant": false,
      "inputs": [
        {
          "internalType": "string",
          "name": "_Date",
          "type": "string"
        }
      ],
      "name": "setDate",
      "outputs": [],
      "payable": false,
      "stateMutability": "nonpayable",
      "type": "function"
    },
    {
      "constant": true,
      "inputs": [],
      "name": "getDate",
      "outputs": [
        {
          "internalType": "string",
          "name": "",
          "type": "string"
        }
      ],
      "payable": false,
      "stateMutability": "view",
      "type": "function"
    },
    {
      "constant": false,
      "inputs": [
        {
          "internalType": "string",
          "name": "_newsTitle",
          "type": "string"
        },
        {
          "internalType": "string",
          "name": "_newsCategory",
          "type": "string"
        },
        {
          "internalType": "bool",
          "name": "_newsUndertaking",
          "type": "bool"
        }
      ],
      "name": "setData",
      "outputs": [],
      "payable": false,
      "stateMutability": "nonpayable",
      "type": "function"
    },
    {
      "constant": true,
      "inputs": [],
      "name": "getData",
      "outputs": [
        {
          "internalType": "bytes32",
          "name": "",
          "type": "bytes32"
        },
        {
          "internalType": "string",
          "name": "",
          "type": "string"
        },
        {
          "internalType": "bool",
          "name": "",
          "type": "bool"
        },
        {
          "internalType": "uint256",
          "name": "",
          "type": "uint256"
        }
      ],
      "payable": false,
      "stateMutability": "view",
      "type": "function"
    }
  ],
  "bytecode": "0x608060405234801561001057600080fd5b50610682806100206000396000f3fe608060405234801561001057600080fd5b506004361061004c5760003560e01c806303c0a38914610051578063053976781461006d5780633bc5de3014610089578063430fe9c1146100aa575b600080fd5b61006b600480360361006691908101906103ac565b6100c8565b005b610087600480360361008291908101906103ed565b6100e2565b005b610091610133565b6040516100a194939291906104d2565b60405180910390f35b6100b26101fc565b6040516100bf919061051e565b60405180910390f35b80600090805190602001906100de92919061029e565b5050565b60008380519060200120905080600181905550826004908051906020019061010b92919061029e565b5081600260006101000a81548160ff0219169083151502179055504260038190555050505050565b600060606000806001546004600260009054906101000a900460ff16600354828054600181600116156101000203166002900480601f0160208091040260200160405190810160405280929190818152602001828054600181600116156101000203166002900480156101e75780601f106101bc576101008083540402835291602001916101e7565b820191906000526020600020905b8154815290600101906020018083116101ca57829003601f168201915b50505050509250935093509350935090919293565b606060008054600181600116156101000203166002900480601f0160208091040260200160405190810160405280929190818152602001828054600181600116156101000203166002900480156102945780601f1061026957610100808354040283529160200191610294565b820191906000526020600020905b81548152906001019060200180831161027757829003601f168201915b5050505050905090565b828054600181600116156101000203166002900490600052602060002090601f016020900481019282601f106102df57805160ff191683800117855561030d565b8280016001018555821561030d579182015b8281111561030c5782518255916020019190600101906102f1565b5b50905061031a919061031e565b5090565b61034091905b8082111561033c576000816000905550600101610324565b5090565b90565b60008135905061035281610628565b92915050565b600082601f83011261036957600080fd5b813561037c6103778261056d565b610540565b9150808252602083016020830185838301111561039857600080fd5b6103a38382846105d5565b50505092915050565b6000602082840312156103be57600080fd5b600082013567ffffffffffffffff8111156103d857600080fd5b6103e484828501610358565b91505092915050565b60008060006060848603121561040257600080fd5b600084013567ffffffffffffffff81111561041c57600080fd5b61042886828701610358565b935050602084013567ffffffffffffffff81111561044557600080fd5b61045186828701610358565b925050604061046286828701610343565b9150509250925092565b610475816105b5565b82525050565b610484816105c1565b82525050565b600061049582610599565b61049f81856105a4565b93506104af8185602086016105e4565b6104b881610617565b840191505092915050565b6104cc816105cb565b82525050565b60006080820190506104e7600083018761047b565b81810360208301526104f9818661048a565b9050610508604083018561046c565b61051560608301846104c3565b95945050505050565b60006020820190508181036000830152610538818461048a565b905092915050565b6000604051905081810181811067ffffffffffffffff8211171561056357600080fd5b8060405250919050565b600067ffffffffffffffff82111561058457600080fd5b601f19601f8301169050602081019050919050565b600081519050919050565b600082825260208201905092915050565b60008115159050919050565b6000819050919050565b6000819050919050565b82818337600083830152505050565b60005b838110156106025780820151818401526020810190506105e7565b83811115610611576000848401525b50505050565b6000601f19601f8301169050919050565b610631816105b5565b811461063c57600080fd5b5056fea365627a7a723158208c9d2badee04e27dedf937fc52659963fb85c8336de1f7b0f54aad2ad2835fba6c6578706572696d656e74616cf564736f6c63430005100040",
  "source": "\n// SPDX-License-Identifier: MIT\\\npragma experimental ABIEncoderV2;\npragma solidity >=0.4.21 <0.8.0; \n\ncontract MyNews{\n    \n    string Date;\n    function setDate( string memory _Date) public{\n       Date = _Date;\n    } \n    \n    function getDate() public view returns(string memory){\n         return(Date);\n     }\n    \n    bytes32 newsTitle;\n    bool newsUndertaking;\n    uint256 proofOfExistence;\n    string newsCategory;\n    \n    \n    function setData ( string memory _newsTitle,string memory _newsCategory, bool _newsUndertaking ) public  {\n        bytes32 _TitleLocal = keccak256(bytes(_newsTitle));\n        newsTitle = _TitleLocal;\n        newsCategory = _newsCategory;\n        newsUndertaking = _newsUndertaking;\n        proofOfExistence = block.timestamp;\n    }\n    \n    function getData() public view returns(bytes32,string memory, bool, uint256){\n        return (newsTitle,newsCategory, newsUndertaking, proofOfExistence);\n    }\n}\n",
  "sourcePath": "F:/_Projects/XCheck/_codes/smart-contract/contracts/MyNews.sol",
  "compiler": {
    "name": "solc",
    "version": "0.5.16+commit.9c3226ce.Emscripten.clang"
  },
  "schemaVersion": "3.3.1",
  "updatedAt": "2020-10-17T16:29:39.266Z",
  "networkType": "ethereum",
  "devdoc": {
    "methods": {}
  },
  "userdoc": {
    "methods": {}
  }
}